{
  "_format": "hh-sol-artifact-1",
  "contractName": "LOR",
  "sourceName": "contracts/LOR.sol",
  "abi": [
    {
      "inputs": [
        {
          "internalType": "uint256",
          "name": "_id",
          "type": "uint256"
        }
      ],
      "name": "approveRecommendation",
      "outputs": [],
      "stateMutability": "nonpayable",
      "type": "function"
    },
    {
      "inputs": [
        {
          "internalType": "uint256",
          "name": "_id",
          "type": "uint256"
        }
      ],
      "name": "getStudentDetails",
      "outputs": [
        {
          "internalType": "string",
          "name": "",
          "type": "string"
        },
        {
          "internalType": "string",
          "name": "",
          "type": "string"
        },
        {
          "internalType": "string",
          "name": "",
          "type": "string"
        },
        {
          "internalType": "bool",
          "name": "",
          "type": "bool"
        }
      ],
      "stateMutability": "view",
      "type": "function"
    },
    {
      "inputs": [
        {
          "internalType": "string",
          "name": "_name",
          "type": "string"
        },
        {
          "internalType": "string",
          "name": "_university",
          "type": "string"
        },
        {
          "internalType": "string",
          "name": "_program",
          "type": "string"
        }
      ],
      "name": "requestRecommendation",
      "outputs": [
        {
          "internalType": "uint256",
          "name": "",
          "type": "uint256"
        }
      ],
      "stateMutability": "nonpayable",
      "type": "function"
    },
    {
      "inputs": [],
      "name": "studentCount",
      "outputs": [
        {
          "internalType": "uint256",
          "name": "",
          "type": "uint256"
        }
      ],
      "stateMutability": "view",
      "type": "function"
    },
    {
      "inputs": [
        {
          "internalType": "uint256",
          "name": "",
          "type": "uint256"
        }
      ],
      "name": "students",
      "outputs": [
        {
          "internalType": "string",
          "name": "name",
          "type": "string"
        },
        {
          "internalType": "string",
          "name": "university",
          "type": "string"
        },
        {
          "internalType": "string",
          "name": "program",
          "type": "string"
        },
        {
          "internalType": "bool",
          "name": "approved",
          "type": "bool"
        },
        {
          "internalType": "bool",
          "name": "exists",
          "type": "bool"
        }
      ],
      "stateMutability": "view",
      "type": "function"
    }
  ],
  "bytecode": "0x6080604052348015600f57600080fd5b50610f658061001f6000396000f3fe608060405234801561001057600080fd5b50600436106100575760003560e01c806306ead22e1461005c5780634bb5531014610090578063519e2fd4146100ac57806386a9b364146100dc578063e581f9ee1461010f575b600080fd5b61007660048036038101906100719190610762565b61012d565b60405161008795949392919061083a565b60405180910390f35b6100aa60048036038101906100a59190610762565b610315565b005b6100c660048036038101906100c191906109d7565b6103a9565b6040516100d39190610a8d565b60405180910390f35b6100f660048036038101906100f19190610762565b610494565b6040516101069493929190610aa8565b60405180910390f35b610117610712565b6040516101249190610a8d565b60405180910390f35b600060205280600052604060002060009150905080600001805461015090610b31565b80601f016020809104026020016040519081016040528092919081815260200182805461017c90610b31565b80156101c95780601f1061019e576101008083540402835291602001916101c9565b820191906000526020600020905b8154815290600101906020018083116101ac57829003601f168201915b5050505050908060010180546101de90610b31565b80601f016020809104026020016040519081016040528092919081815260200182805461020a90610b31565b80156102575780601f1061022c57610100808354040283529160200191610257565b820191906000526020600020905b81548152906001019060200180831161023a57829003601f168201915b50505050509080600201805461026c90610b31565b80601f016020809104026020016040519081016040528092919081815260200182805461029890610b31565b80156102e55780601f106102ba576101008083540402835291602001916102e5565b820191906000526020600020905b8154815290600101906020018083116102c857829003601f168201915b5050505050908060030160009054906101000a900460ff16908060030160019054906101000a900460ff16905085565b60008082815260200190815260200160002060030160009054906101000a900460ff1615610378576040517f08c379a000000000000000000000000000000000000000000000000000000000815260040161036f90610bae565b60405180910390fd5b600160008083815260200190815260200160002060030160006101000a81548160ff02191690831515021790555050565b600080600160008154809291906103bf90610bfd565b9190505590506040518060a001604052808681526020018581526020018481526020016000151581526020016001151581525060008083815260200190815260200160002060008201518160000190816104199190610df1565b50602082015181600101908161042f9190610df1565b5060408201518160020190816104459190610df1565b5060608201518160030160006101000a81548160ff02191690831515021790555060808201518160030160016101000a81548160ff021916908315150217905550905050809150509392505050565b6060806060600080600086815260200190815260200160002060030160019054906101000a900460ff166104fd576040517f08c379a00000000000000000000000000000000000000000000000000000000081526004016104f490610f0f565b60405180910390fd5b60008086815260200190815260200160002060000160008087815260200190815260200160002060010160008088815260200190815260200160002060020160008089815260200190815260200160002060030160009054906101000a900460ff1683805461056b90610b31565b80601f016020809104026020016040519081016040528092919081815260200182805461059790610b31565b80156105e45780601f106105b9576101008083540402835291602001916105e4565b820191906000526020600020905b8154815290600101906020018083116105c757829003601f168201915b505050505093508280546105f790610b31565b80601f016020809104026020016040519081016040528092919081815260200182805461062390610b31565b80156106705780601f1061064557610100808354040283529160200191610670565b820191906000526020600020905b81548152906001019060200180831161065357829003601f168201915b5050505050925081805461068390610b31565b80601f01602080910402602001604051908101604052809291908181526020018280546106af90610b31565b80156106fc5780601f106106d1576101008083540402835291602001916106fc565b820191906000526020600020905b8154815290600101906020018083116106df57829003601f168201915b5050505050915093509350935093509193509193565b60015481565b6000604051905090565b600080fd5b600080fd5b6000819050919050565b61073f8161072c565b811461074a57600080fd5b50565b60008135905061075c81610736565b92915050565b60006020828403121561077857610777610722565b5b60006107868482850161074d565b91505092915050565b600081519050919050565b600082825260208201905092915050565b60005b838110156107c95780820151818401526020810190506107ae565b60008484015250505050565b6000601f19601f8301169050919050565b60006107f18261078f565b6107fb818561079a565b935061080b8185602086016107ab565b610814816107d5565b840191505092915050565b60008115159050919050565b6108348161081f565b82525050565b600060a082019050818103600083015261085481886107e6565b9050818103602083015261086881876107e6565b9050818103604083015261087c81866107e6565b905061088b606083018561082b565b610898608083018461082b565b9695505050505050565b600080fd5b600080fd5b7f4e487b7100000000000000000000000000000000000000000000000000000000600052604160045260246000fd5b6108e4826107d5565b810181811067ffffffffffffffff82111715610903576109026108ac565b5b80604052505050565b6000610916610718565b905061092282826108db565b919050565b600067ffffffffffffffff821115610942576109416108ac565b5b61094b826107d5565b9050602081019050919050565b82818337600083830152505050565b600061097a61097584610927565b61090c565b905082815260208101848484011115610996576109956108a7565b5b6109a1848285610958565b509392505050565b600082601f8301126109be576109bd6108a2565b5b81356109ce848260208601610967565b91505092915050565b6000806000606084860312156109f0576109ef610722565b5b600084013567ffffffffffffffff811115610a0e57610a0d610727565b5b610a1a868287016109a9565b935050602084013567ffffffffffffffff811115610a3b57610a3a610727565b5b610a47868287016109a9565b925050604084013567ffffffffffffffff811115610a6857610a67610727565b5b610a74868287016109a9565b9150509250925092565b610a878161072c565b82525050565b6000602082019050610aa26000830184610a7e565b92915050565b60006080820190508181036000830152610ac281876107e6565b90508181036020830152610ad681866107e6565b90508181036040830152610aea81856107e6565b9050610af9606083018461082b565b95945050505050565b7f4e487b7100000000000000000000000000000000000000000000000000000000600052602260045260246000fd5b60006002820490506001821680610b4957607f821691505b602082108103610b5c57610b5b610b02565b5b50919050565b7f5265636f6d6d656e646174696f6e20616c726561647920417070726f76656400600082015250565b6000610b98601f8361079a565b9150610ba382610b62565b602082019050919050565b60006020820190508181036000830152610bc781610b8b565b9050919050565b7f4e487b7100000000000000000000000000000000000000000000000000000000600052601160045260246000fd5b6000610c088261072c565b91507fffffffffffffffffffffffffffffffffffffffffffffffffffffffffffffffff8203610c3a57610c39610bce565b5b600182019050919050565b60008190508160005260206000209050919050565b60006020601f8301049050919050565b600082821b905092915050565b600060088302610ca77fffffffffffffffffffffffffffffffffffffffffffffffffffffffffffffffff82610c6a565b610cb18683610c6a565b95508019841693508086168417925050509392505050565b6000819050919050565b6000610cee610ce9610ce48461072c565b610cc9565b61072c565b9050919050565b6000819050919050565b610d0883610cd3565b610d1c610d1482610cf5565b848454610c77565b825550505050565b600090565b610d31610d24565b610d3c818484610cff565b505050565b5b81811015610d6057610d55600082610d29565b600181019050610d42565b5050565b601f821115610da557610d7681610c45565b610d7f84610c5a565b81016020851015610d8e578190505b610da2610d9a85610c5a565b830182610d41565b50505b505050565b600082821c905092915050565b6000610dc860001984600802610daa565b1980831691505092915050565b6000610de18383610db7565b9150826002028217905092915050565b610dfa8261078f565b67ffffffffffffffff811115610e1357610e126108ac565b5b610e1d8254610b31565b610e28828285610d64565b600060209050601f831160018114610e5b5760008415610e49578287015190505b610e538582610dd5565b865550610ebb565b601f198416610e6986610c45565b60005b82811015610e9157848901518255600182019150602085019450602081019050610e6c565b86831015610eae5784890151610eaa601f891682610db7565b8355505b6001600288020188555050505b505050505050565b7f53747564656e7420494420646f6573206e6f7420657869737400000000000000600082015250565b6000610ef960198361079a565b9150610f0482610ec3565b602082019050919050565b60006020820190508181036000830152610f2881610eec565b905091905056fea26469706673582212201bea1a8cfab4eafe575635458a967ac1f820b0df5cee039315b75657272426f264736f6c634300081c0033",
  "linkReferences": {},
  "deployedLinkReferences": {}
}