{
  "address": "0x9A0670AAa1bDE6e4b6E09f1d5f2880f977B49F1B",
  "abi": [
    {
      "inputs": [],
      "stateMutability": "nonpayable",
      "type": "constructor"
    },
    {
      "inputs": [
        {
          "internalType": "address",
          "name": "",
          "type": "address"
        }
      ],
      "name": "atf",
      "outputs": [
        {
          "internalType": "uint256",
          "name": "",
          "type": "uint256"
        }
      ],
      "stateMutability": "view",
      "type": "function"
    },
    {
      "inputs": [],
      "name": "fund",
      "outputs": [],
      "stateMutability": "payable",
      "type": "function"
    },
    {
      "inputs": [],
      "name": "getBalance",
      "outputs": [
        {
          "internalType": "uint256",
          "name": "",
          "type": "uint256"
        }
      ],
      "stateMutability": "view",
      "type": "function"
    },
    {
      "inputs": [
        {
          "internalType": "address",
          "name": "funder",
          "type": "address"
        }
      ],
      "name": "getFunderContribution",
      "outputs": [
        {
          "internalType": "uint256",
          "name": "",
          "type": "uint256"
        }
      ],
      "stateMutability": "view",
      "type": "function"
    },
    {
      "inputs": [],
      "name": "owner",
      "outputs": [
        {
          "internalType": "address",
          "name": "",
          "type": "address"
        }
      ],
      "stateMutability": "view",
      "type": "function"
    },
    {
      "inputs": [],
      "name": "withdraw",
      "outputs": [],
      "stateMutability": "nonpayable",
      "type": "function"
    }
  ],
  "transactionHash": "0xc5716df34c096709e1806932b2bd14770304e2a1d435ea454f08f7f81e047936",
  "args": [],
  "numDeployments": 1,
  "solcInputHash": "bbb38bb03fb94f3ed6382538c29e7948",
  "bytecode": "0x6080604052348015600f57600080fd5b50336000806101000a81548173ffffffffffffffffffffffffffffffffffffffff021916908373ffffffffffffffffffffffffffffffffffffffff16021790555061072b8061005f6000396000f3fe6080604052600436106100555760003560e01c80630930f6db1461005a57806312065fe0146100975780633ccfd60b146100c25780638da5cb5b146100d9578063b60d428814610104578063f8f1df6c1461010e575b600080fd5b34801561006657600080fd5b50610081600480360381019061007c919061046c565b61014b565b60405161008e91906104b2565b60405180910390f35b3480156100a357600080fd5b506100ac610194565b6040516100b991906104b2565b60405180910390f35b3480156100ce57600080fd5b506100d761019c565b005b3480156100e557600080fd5b506100ee6102fa565b6040516100fb91906104dc565b60405180910390f35b61010c61031e565b005b34801561011a57600080fd5b506101356004803603810190610130919061046c565b6103f1565b60405161014291906104b2565b60405180910390f35b6000600160008373ffffffffffffffffffffffffffffffffffffffff1673ffffffffffffffffffffffffffffffffffffffff168152602001908152602001600020549050919050565b600047905090565b60008054906101000a900473ffffffffffffffffffffffffffffffffffffffff1673ffffffffffffffffffffffffffffffffffffffff163373ffffffffffffffffffffffffffffffffffffffff161461022a576040517f08c379a000000000000000000000000000000000000000000000000000000000815260040161022190610554565b60405180910390fd5b60008060009054906101000a900473ffffffffffffffffffffffffffffffffffffffff1673ffffffffffffffffffffffffffffffffffffffff1647604051610271906105a5565b60006040518083038185875af1925050503d80600081146102ae576040519150601f19603f3d011682016040523d82523d6000602084013e6102b3565b606091505b50509050806102f7576040517f08c379a00000000000000000000000000000000000000000000000000000000081526004016102ee90610606565b60405180910390fd5b50565b60008054906101000a900473ffffffffffffffffffffffffffffffffffffffff1681565b60003411610361576040517f08c379a000000000000000000000000000000000000000000000000000000000815260040161035890610672565b60405180910390fd5b34600160003373ffffffffffffffffffffffffffffffffffffffff1673ffffffffffffffffffffffffffffffffffffffff168152602001908152602001600020546103ac91906106c1565b600160003373ffffffffffffffffffffffffffffffffffffffff1673ffffffffffffffffffffffffffffffffffffffff16815260200190815260200160002081905550565b60016020528060005260406000206000915090505481565b600080fd5b600073ffffffffffffffffffffffffffffffffffffffff82169050919050565b60006104398261040e565b9050919050565b6104498161042e565b811461045457600080fd5b50565b60008135905061046681610440565b92915050565b60006020828403121561048257610481610409565b5b600061049084828501610457565b91505092915050565b6000819050919050565b6104ac81610499565b82525050565b60006020820190506104c760008301846104a3565b92915050565b6104d68161042e565b82525050565b60006020820190506104f160008301846104cd565b92915050565b600082825260208201905092915050565b7f4f6e6c79206f776e65722063616e207769746864726177000000000000000000600082015250565b600061053e6017836104f7565b915061054982610508565b602082019050919050565b6000602082019050818103600083015261056d81610531565b9050919050565b600081905092915050565b50565b600061058f600083610574565b915061059a8261057f565b600082019050919050565b60006105b082610582565b9150819050919050565b7f7769746864726177206661696c65640000000000000000000000000000000000600082015250565b60006105f0600f836104f7565b91506105fb826105ba565b602082019050919050565b6000602082019050818103600083015261061f816105e3565b9050919050565b7f596f75206e6565656420746f2073656e6420736f6d6520455448000000000000600082015250565b600061065c601a836104f7565b915061066782610626565b602082019050919050565b6000602082019050818103600083015261068b8161064f565b9050919050565b7f4e487b7100000000000000000000000000000000000000000000000000000000600052601160045260246000fd5b60006106cc82610499565b91506106d783610499565b92508282019050808211156106ef576106ee610692565b5b9291505056fea2646970667358221220c58dfe746a4d383f6d9b5bed0c7782f876e9d8f9616cde2bafb91219ceb5907164736f6c634300081c0033",
  "devdoc": {
    "kind": "dev",
    "methods": {},
    "version": 1
  },
  "userdoc": {
    "kind": "user",
    "methods": {},
    "version": 1
  },
  "storageLayout": {
    "storage": [
      {
        "astId": 3,
        "contract": "contracts/Fundme.sol:Fundme",
        "label": "owner",
        "offset": 0,
        "slot": "0",
        "type": "t_address"
      },
      {
        "astId": 7,
        "contract": "contracts/Fundme.sol:Fundme",
        "label": "atf",
        "offset": 0,
        "slot": "1",
        "type": "t_mapping(t_address,t_uint256)"
      }
    ],
    "types": {
      "t_address": {
        "encoding": "inplace",
        "label": "address",
        "numberOfBytes": "20"
      },
      "t_mapping(t_address,t_uint256)": {
        "encoding": "mapping",
        "key": "t_address",
        "label": "mapping(address => uint256)",
        "numberOfBytes": "32",
        "value": "t_uint256"
      },
      "t_uint256": {
        "encoding": "inplace",
        "label": "uint256",
        "numberOfBytes": "32"
      }
    }
  }
}